{
  "contractName": "CoffeeCoin",
  "abi": [
    {
      "inputs": [],
      "payable": false,
      "stateMutability": "nonpayable",
      "type": "constructor"
    },
    {
      "constant": false,
      "inputs": [
        {
          "name": "coffeeMachineAddr",
          "type": "address"
        },
        {
          "name": "initialPriceByUnit",
          "type": "uint256"
        },
        {
          "name": "initialStock",
          "type": "uint256"
        }
      ],
      "name": "newCoffeeMachine",
      "outputs": [],
      "payable": false,
      "stateMutability": "nonpayable",
      "type": "function"
    },
    {
      "constant": false,
      "inputs": [
        {
          "name": "coffeeMachineAddr",
          "type": "address"
        },
        {
          "name": "quantity",
          "type": "uint256"
        }
      ],
      "name": "addStockToCoffeeMachine",
      "outputs": [],
      "payable": false,
      "stateMutability": "nonpayable",
      "type": "function"
    },
    {
      "constant": false,
      "inputs": [
        {
          "name": "coffeeMachineAddr",
          "type": "address"
        },
        {
          "name": "newPriceByUnit",
          "type": "uint256"
        }
      ],
      "name": "changeCoffeePrice",
      "outputs": [],
      "payable": false,
      "stateMutability": "nonpayable",
      "type": "function"
    },
    {
      "constant": true,
      "inputs": [
        {
          "name": "coffeeMachineAddr",
          "type": "address"
        }
      ],
      "name": "auditCoffeeMachine",
      "outputs": [
        {
          "name": "",
          "type": "address"
        },
        {
          "name": "",
          "type": "uint256"
        },
        {
          "name": "",
          "type": "uint256"
        },
        {
          "name": "",
          "type": "uint256"
        }
      ],
      "payable": false,
      "stateMutability": "view",
      "type": "function"
    },
    {
      "constant": false,
      "inputs": [
        {
          "name": "CoffeeMachineAddress",
          "type": "address"
        }
      ],
      "name": "buyCoffee",
      "outputs": [
        {
          "name": "",
          "type": "bool"
        }
      ],
      "payable": false,
      "stateMutability": "nonpayable",
      "type": "function"
    }
  ],
  "bytecode": "0x6060604052341561000f57600080fd5b6020604051908101604052806101f4815250600160003373ffffffffffffffffffffffffffffffffffffffff1673ffffffffffffffffffffffffffffffffffffffff168152602001908152602001600020600082015181600001559050506106a48061007c6000396000f30060606040526004361061006d576000357c0100000000000000000000000000000000000000000000000000000000900463ffffffff1680631b3cf307146100725780632ac6a10b146100bd578063406cc1e01461014b57806380bba1d31461018d578063ff94623c146101de575b600080fd5b341561007d57600080fd5b6100bb600480803573ffffffffffffffffffffffffffffffffffffffff16906020019091908035906020019091908035906020019091905050610220565b005b34156100c857600080fd5b6100f4600480803573ffffffffffffffffffffffffffffffffffffffff169060200190919050506102a1565b604051808573ffffffffffffffffffffffffffffffffffffffff1673ffffffffffffffffffffffffffffffffffffffff16815260200184815260200183815260200182815260200194505050505060405180910390f35b341561015657600080fd5b61018b600480803573ffffffffffffffffffffffffffffffffffffffff1690602001909190803590602001909190505061037d565b005b341561019857600080fd5b6101c4600480803573ffffffffffffffffffffffffffffffffffffffff169060200190919050506103d0565b604051808215151515815260200191505060405180910390f35b34156101e957600080fd5b61021e600480803573ffffffffffffffffffffffffffffffffffffffff1690602001909190803590602001909190505061062e565b005b60606040519081016040528083815260200182815260200160008152506000808573ffffffffffffffffffffffffffffffffffffffff1673ffffffffffffffffffffffffffffffffffffffff168152602001908152602001600020600082015181600001556020820151816001015560408201518160020155905050505050565b600080600080846000808773ffffffffffffffffffffffffffffffffffffffff1673ffffffffffffffffffffffffffffffffffffffff168152602001908152602001600020600001546000808873ffffffffffffffffffffffffffffffffffffffff1673ffffffffffffffffffffffffffffffffffffffff168152602001908152602001600020600101546000808973ffffffffffffffffffffffffffffffffffffffff1673ffffffffffffffffffffffffffffffffffffffff1681526020019081526020016000206002015493509350935093509193509193565b806000808473ffffffffffffffffffffffffffffffffffffffff1673ffffffffffffffffffffffffffffffffffffffff168152602001908152602001600020600101600082825401925050819055505050565b60008060008373ffffffffffffffffffffffffffffffffffffffff1673ffffffffffffffffffffffffffffffffffffffff16815260200190815260200160002060000154600160003373ffffffffffffffffffffffffffffffffffffffff1673ffffffffffffffffffffffffffffffffffffffff168152602001908152602001600020600001541180156104a5575060016000808473ffffffffffffffffffffffffffffffffffffffff1673ffffffffffffffffffffffffffffffffffffffff16815260200190815260200160002060010154115b156106245760016000808473ffffffffffffffffffffffffffffffffffffffff1673ffffffffffffffffffffffffffffffffffffffff168152602001908152602001600020600101600082825403925050819055506000808373ffffffffffffffffffffffffffffffffffffffff1673ffffffffffffffffffffffffffffffffffffffff168152602001908152602001600020600001546000808473ffffffffffffffffffffffffffffffffffffffff1673ffffffffffffffffffffffffffffffffffffffff168152602001908152602001600020600201600082825401925050819055506000808373ffffffffffffffffffffffffffffffffffffffff1673ffffffffffffffffffffffffffffffffffffffff16815260200190815260200160002060000154600160003373ffffffffffffffffffffffffffffffffffffffff1673ffffffffffffffffffffffffffffffffffffffff1681526020019081526020016000206000016000828254039250508190555060019050610629565b600090505b919050565b806000808473ffffffffffffffffffffffffffffffffffffffff1673ffffffffffffffffffffffffffffffffffffffff1681526020019081526020016000206000018190555050505600a165627a7a72305820ea60bd21d49baa90649ec913e0b367086fee3840f3bbd937775875390963aa760029",
  "source": "pragma solidity ^0.4.17;\r\n\r\ncontract CoffeeCoin{\r\n\r\n    // CONSTRUCTING MY \"OBJECTS\" =======================\r\n    struct CoffeeMachine{\r\n        uint priceByUnit;\r\n        uint stock;\r\n        uint credit;\r\n    }\r\n\r\n    struct User{\r\n        uint credit;\r\n    }\r\n    // CONSTRUCTING MY \"OBJECTS\" =======================\r\n    \r\n    // DECLARING SOMETHING\r\n    mapping (address=>CoffeeMachine) coffeeMachines;\r\n    mapping (address=>User) users;\r\n\r\n    // CONSTRUCTOR\r\n    function CoffeeCoin() public{\r\n        users[msg.sender] = User(500);\r\n    }\r\n\r\n    // COFFEE MACHINE FUNCTIONS =======================\r\n    function newCoffeeMachine(address coffeeMachineAddr, uint initialPriceByUnit, uint initialStock) public{\r\n        coffeeMachines[coffeeMachineAddr] = CoffeeMachine(initialPriceByUnit, initialStock, 0);\r\n    }\r\n\r\n    function addStockToCoffeeMachine(address coffeeMachineAddr, uint quantity) public {\r\n        coffeeMachines[coffeeMachineAddr].stock += quantity; \r\n    }\r\n\r\n    function changeCoffeePrice(address coffeeMachineAddr, uint newPriceByUnit) public{\r\n        coffeeMachines[coffeeMachineAddr].priceByUnit = newPriceByUnit; \r\n    }\r\n\r\n    function auditCoffeeMachine(address coffeeMachineAddr) public constant returns(address, uint ,uint, uint){\r\n        return (coffeeMachineAddr, coffeeMachines[coffeeMachineAddr].priceByUnit, coffeeMachines[coffeeMachineAddr].stock, coffeeMachines[coffeeMachineAddr].credit);\r\n    }\r\n    // COFFEE MACHINE FUNCTIONS =======================\r\n\r\n    // USER FUNCTIONS =======================\r\n    function buyCoffee(address CoffeeMachineAddress) public returns(bool){ //NOT DONE\r\n        if (users[msg.sender].credit > coffeeMachines[CoffeeMachineAddress].priceByUnit && coffeeMachines[CoffeeMachineAddress].stock > 1) {\r\n            coffeeMachines[CoffeeMachineAddress].stock -= 1;\r\n            coffeeMachines[CoffeeMachineAddress].credit += coffeeMachines[CoffeeMachineAddress].priceByUnit;\r\n            users[msg.sender].credit -= coffeeMachines[CoffeeMachineAddress].priceByUnit;\r\n            return true;\r\n        }\r\n        return false;\r\n    }\r\n\r\n    // USER FUNCTIONS =======================\r\n\r\n}",
  "sourcePath": "C:\\Users\\BrunoTomassettiCouto\\Documents\\GitHub\\CoffeeCoin-Contract-Ethereum\\contracts\\CoffeeCoin.sol",
  "compiler": {
    "name": "solc",
    "version": "0.4.21+commit.dfe3193c.Emscripten.clang"
  },
  "schemaVersion": "2.0.0",
  "updatedAt": "2018-04-21T20:23:23.964Z"
}