{
  "contractName": "CoffeeCoin",
  "abi": [
    {
      "inputs": [],
      "payable": false,
      "stateMutability": "nonpayable",
      "type": "constructor"
    },
    {
      "constant": false,
      "inputs": [
        {
          "name": "coffeeMachineAddr",
          "type": "address"
        },
        {
          "name": "initialPriceByUnit",
          "type": "uint256"
        },
        {
          "name": "initialStock",
          "type": "uint256"
        }
      ],
      "name": "newCoffeeMachine",
      "outputs": [],
      "payable": false,
      "stateMutability": "nonpayable",
      "type": "function"
    },
    {
      "constant": false,
      "inputs": [
        {
          "name": "coffeeMachineAddr",
          "type": "address"
        },
        {
          "name": "quantity",
          "type": "uint256"
        }
      ],
      "name": "reStockMachine",
      "outputs": [],
      "payable": false,
      "stateMutability": "nonpayable",
      "type": "function"
    },
    {
      "constant": true,
      "inputs": [
        {
          "name": "coffeeMachineAddr",
          "type": "address"
        }
      ],
      "name": "auditCoffeeMachine",
      "outputs": [
        {
          "name": "",
          "type": "address"
        },
        {
          "name": "",
          "type": "uint256"
        },
        {
          "name": "",
          "type": "uint256"
        },
        {
          "name": "",
          "type": "uint256"
        }
      ],
      "payable": false,
      "stateMutability": "view",
      "type": "function"
    }
  ],
  "bytecode": "0x6060604052341561000f57600080fd5b6020604051908101604052806101f4815250600160003373ffffffffffffffffffffffffffffffffffffffff1673ffffffffffffffffffffffffffffffffffffffff168152602001908152602001600020600082015181600001559050506103538061007c6000396000f300606060405260043610610057576000357c0100000000000000000000000000000000000000000000000000000000900463ffffffff168063105982861461005c5780631b3cf3071461009e5780632ac6a10b146100e9575b600080fd5b341561006757600080fd5b61009c600480803573ffffffffffffffffffffffffffffffffffffffff16906020019091908035906020019091905050610177565b005b34156100a957600080fd5b6100e7600480803573ffffffffffffffffffffffffffffffffffffffff169060200190919080359060200190919080359060200190919050506101ca565b005b34156100f457600080fd5b610120600480803573ffffffffffffffffffffffffffffffffffffffff1690602001909190505061024b565b604051808573ffffffffffffffffffffffffffffffffffffffff1673ffffffffffffffffffffffffffffffffffffffff16815260200184815260200183815260200182815260200194505050505060405180910390f35b806000808473ffffffffffffffffffffffffffffffffffffffff1673ffffffffffffffffffffffffffffffffffffffff168152602001908152602001600020600101600082825401925050819055505050565b60606040519081016040528083815260200182815260200160008152506000808573ffffffffffffffffffffffffffffffffffffffff1673ffffffffffffffffffffffffffffffffffffffff168152602001908152602001600020600082015181600001556020820151816001015560408201518160020155905050505050565b600080600080846000808773ffffffffffffffffffffffffffffffffffffffff1673ffffffffffffffffffffffffffffffffffffffff168152602001908152602001600020600001546000808873ffffffffffffffffffffffffffffffffffffffff1673ffffffffffffffffffffffffffffffffffffffff168152602001908152602001600020600101546000808973ffffffffffffffffffffffffffffffffffffffff1673ffffffffffffffffffffffffffffffffffffffff16815260200190815260200160002060020154935093509350935091935091935600a165627a7a72305820b8b3daf9c19cd044bf82fb23b308a33a4142e0549e4094b7489c4a2f05209e660029",
  "source": "pragma solidity ^0.4.17;\r\n\r\ncontract CoffeeCoin{\r\n\r\n\r\n    struct CoffeeMachine{\r\n        uint priceByUnit;\r\n        uint stock;\r\n        uint credit;\r\n    }\r\n\r\n    struct User{\r\n        uint credit;\r\n    }\r\n    \r\n    mapping (address=>CoffeeMachine) coffeeMachines;\r\n    mapping (address=>User) users;\r\n\r\n    function CoffeeCoin() public{\r\n        users[msg.sender] = User(500);\r\n    }\r\n\r\n    function newCoffeeMachine(address coffeeMachineAddr, uint initialPriceByUnit, uint initialStock) public{\r\n        coffeeMachines[coffeeMachineAddr] = CoffeeMachine(initialPriceByUnit, initialStock, 0);\r\n    }\r\n\r\n    function reStockMachine(address coffeeMachineAddr, uint quantity) public {\r\n        coffeeMachines[coffeeMachineAddr].stock += quantity; \r\n    }\r\n\r\n    function auditCoffeeMachine(address coffeeMachineAddr) public constant returns(address, uint ,uint, uint){\r\n        return (coffeeMachineAddr, coffeeMachines[coffeeMachineAddr].priceByUnit, coffeeMachines[coffeeMachineAddr].stock, coffeeMachines[coffeeMachineAddr].credit);\r\n    }\r\n}",
  "sourcePath": "C:\\Users\\BrunoTomassettiCouto\\Documents\\GitHub\\CoffeeCoin\\contracts\\CoffeeCoin.sol",
  "compiler": {
    "name": "solc",
    "version": "0.4.21+commit.dfe3193c.Emscripten.clang"
  },
  "schemaVersion": "2.0.0",
  "updatedAt": "2018-04-21T19:40:32.855Z"
}